{
  "_format": "hh-sol-artifact-1",
  "contractName": "myNFT",
  "sourceName": "contracts/myNFT.sol",
  "abi": [
    {
      "inputs": [],
      "stateMutability": "nonpayable",
      "type": "constructor"
    },
    {
      "anonymous": false,
      "inputs": [
        {
          "indexed": true,
          "internalType": "address",
          "name": "owner",
          "type": "address"
        },
        {
          "indexed": true,
          "internalType": "address",
          "name": "approved",
          "type": "address"
        },
        {
          "indexed": true,
          "internalType": "uint256",
          "name": "tokenId",
          "type": "uint256"
        }
      ],
      "name": "Approval",
      "type": "event"
    },
    {
      "anonymous": false,
      "inputs": [
        {
          "indexed": true,
          "internalType": "address",
          "name": "owner",
          "type": "address"
        },
        {
          "indexed": true,
          "internalType": "address",
          "name": "operator",
          "type": "address"
        },
        {
          "indexed": false,
          "internalType": "bool",
          "name": "approved",
          "type": "bool"
        }
      ],
      "name": "ApprovalForAll",
      "type": "event"
    },
    {
      "anonymous": false,
      "inputs": [
        {
          "indexed": true,
          "internalType": "address",
          "name": "previousOwner",
          "type": "address"
        },
        {
          "indexed": true,
          "internalType": "address",
          "name": "newOwner",
          "type": "address"
        }
      ],
      "name": "OwnershipTransferred",
      "type": "event"
    },
    {
      "anonymous": false,
      "inputs": [
        {
          "indexed": true,
          "internalType": "address",
          "name": "from",
          "type": "address"
        },
        {
          "indexed": true,
          "internalType": "address",
          "name": "to",
          "type": "address"
        },
        {
          "indexed": true,
          "internalType": "uint256",
          "name": "tokenId",
          "type": "uint256"
        }
      ],
      "name": "Transfer",
      "type": "event"
    },
    {
      "inputs": [
        {
          "internalType": "address",
          "name": "to",
          "type": "address"
        },
        {
          "internalType": "uint256",
          "name": "tokenId",
          "type": "uint256"
        }
      ],
      "name": "approve",
      "outputs": [],
      "stateMutability": "nonpayable",
      "type": "function"
    },
    {
      "inputs": [
        {
          "internalType": "address",
          "name": "owner",
          "type": "address"
        }
      ],
      "name": "balanceOf",
      "outputs": [
        {
          "internalType": "uint256",
          "name": "",
          "type": "uint256"
        }
      ],
      "stateMutability": "view",
      "type": "function"
    },
    {
      "inputs": [
        {
          "internalType": "uint256",
          "name": "tokenId",
          "type": "uint256"
        }
      ],
      "name": "getApproved",
      "outputs": [
        {
          "internalType": "address",
          "name": "",
          "type": "address"
        }
      ],
      "stateMutability": "view",
      "type": "function"
    },
    {
      "inputs": [
        {
          "internalType": "address",
          "name": "owner",
          "type": "address"
        },
        {
          "internalType": "address",
          "name": "operator",
          "type": "address"
        }
      ],
      "name": "isApprovedForAll",
      "outputs": [
        {
          "internalType": "bool",
          "name": "",
          "type": "bool"
        }
      ],
      "stateMutability": "view",
      "type": "function"
    },
    {
      "inputs": [
        {
          "internalType": "address",
          "name": "recipient",
          "type": "address"
        },
        {
          "internalType": "string",
          "name": "tokenURI",
          "type": "string"
        }
      ],
      "name": "mintNFT",
      "outputs": [
        {
          "internalType": "uint256",
          "name": "",
          "type": "uint256"
        }
      ],
      "stateMutability": "nonpayable",
      "type": "function"
    },
    {
      "inputs": [],
      "name": "name",
      "outputs": [
        {
          "internalType": "string",
          "name": "",
          "type": "string"
        }
      ],
      "stateMutability": "view",
      "type": "function"
    },
    {
      "inputs": [],
      "name": "owner",
      "outputs": [
        {
          "internalType": "address",
          "name": "",
          "type": "address"
        }
      ],
      "stateMutability": "view",
      "type": "function"
    },
    {
      "inputs": [
        {
          "internalType": "uint256",
          "name": "tokenId",
          "type": "uint256"
        }
      ],
      "name": "ownerOf",
      "outputs": [
        {
          "internalType": "address",
          "name": "",
          "type": "address"
        }
      ],
      "stateMutability": "view",
      "type": "function"
    },
    {
      "inputs": [],
      "name": "renounceOwnership",
      "outputs": [],
      "stateMutability": "nonpayable",
      "type": "function"
    },
    {
      "inputs": [
        {
          "internalType": "address",
          "name": "from",
          "type": "address"
        },
        {
          "internalType": "address",
          "name": "to",
          "type": "address"
        },
        {
          "internalType": "uint256",
          "name": "tokenId",
          "type": "uint256"
        }
      ],
      "name": "safeTransferFrom",
      "outputs": [],
      "stateMutability": "nonpayable",
      "type": "function"
    },
    {
      "inputs": [
        {
          "internalType": "address",
          "name": "from",
          "type": "address"
        },
        {
          "internalType": "address",
          "name": "to",
          "type": "address"
        },
        {
          "internalType": "uint256",
          "name": "tokenId",
          "type": "uint256"
        },
        {
          "internalType": "bytes",
          "name": "data",
          "type": "bytes"
        }
      ],
      "name": "safeTransferFrom",
      "outputs": [],
      "stateMutability": "nonpayable",
      "type": "function"
    },
    {
      "inputs": [
        {
          "internalType": "address",
          "name": "operator",
          "type": "address"
        },
        {
          "internalType": "bool",
          "name": "approved",
          "type": "bool"
        }
      ],
      "name": "setApprovalForAll",
      "outputs": [],
      "stateMutability": "nonpayable",
      "type": "function"
    },
    {
      "inputs": [
        {
          "internalType": "bytes4",
          "name": "interfaceId",
          "type": "bytes4"
        }
      ],
      "name": "supportsInterface",
      "outputs": [
        {
          "internalType": "bool",
          "name": "",
          "type": "bool"
        }
      ],
      "stateMutability": "view",
      "type": "function"
    },
    {
      "inputs": [],
      "name": "symbol",
      "outputs": [
        {
          "internalType": "string",
          "name": "",
          "type": "string"
        }
      ],
      "stateMutability": "view",
      "type": "function"
    },
    {
      "inputs": [
        {
          "internalType": "uint256",
          "name": "tokenId",
          "type": "uint256"
        }
      ],
      "name": "tokenURI",
      "outputs": [
        {
          "internalType": "string",
          "name": "",
          "type": "string"
        }
      ],
      "stateMutability": "view",
      "type": "function"
    },
    {
      "inputs": [
        {
          "internalType": "address",
          "name": "from",
          "type": "address"
        },
        {
          "internalType": "address",
          "name": "to",
          "type": "address"
        },
        {
          "internalType": "uint256",
          "name": "tokenId",
          "type": "uint256"
        }
      ],
      "name": "transferFrom",
      "outputs": [],
      "stateMutability": "nonpayable",
      "type": "function"
    },
    {
      "inputs": [
        {
          "internalType": "address",
          "name": "newOwner",
          "type": "address"
        }
      ],
      "name": "transferOwnership",
      "outputs": [],
      "stateMutability": "nonpayable",
      "type": "function"
    },
    {
      "inputs": [
        {
          "internalType": "uint256",
          "name": "tokenId",
          "type": "uint256"
        },
        {
          "internalType": "string",
          "name": "tokenURI",
          "type": "string"
        }
      ],
      "name": "updateTokenURI",
      "outputs": [
        {
          "internalType": "string",
          "name": "",
          "type": "string"
        }
      ],
      "stateMutability": "nonpayable",
      "type": "function"
    }
  ],
  "bytecode": "0x60806040523480156200001157600080fd5b506040518060400160405280600581526020017f4d794e46540000000000000000000000000000000000000000000000000000008152506040518060400160405280600381526020017f4e4654000000000000000000000000000000000000000000000000000000000081525081600090816200008f919062000412565b508060019081620000a1919062000412565b505050620000c4620000b8620000ca60201b60201c565b620000d260201b60201c565b620004f9565b600033905090565b6000600760009054906101000a900473ffffffffffffffffffffffffffffffffffffffff16905081600760006101000a81548173ffffffffffffffffffffffffffffffffffffffff021916908373ffffffffffffffffffffffffffffffffffffffff1602179055508173ffffffffffffffffffffffffffffffffffffffff168173ffffffffffffffffffffffffffffffffffffffff167f8be0079c531659141344cd1fd0a4f28419497f9722a3daafe3b4186f6b6457e060405160405180910390a35050565b600081519050919050565b7f4e487b7100000000000000000000000000000000000000000000000000000000600052604160045260246000fd5b7f4e487b7100000000000000000000000000000000000000000000000000000000600052602260045260246000fd5b600060028204905060018216806200021a57607f821691505b60208210810362000230576200022f620001d2565b5b50919050565b60008190508160005260206000209050919050565b60006020601f8301049050919050565b600082821b905092915050565b6000600883026200029a7fffffffffffffffffffffffffffffffffffffffffffffffffffffffffffffffff826200025b565b620002a686836200025b565b95508019841693508086168417925050509392505050565b6000819050919050565b6000819050919050565b6000620002f3620002ed620002e784620002be565b620002c8565b620002be565b9050919050565b6000819050919050565b6200030f83620002d2565b620003276200031e82620002fa565b84845462000268565b825550505050565b600090565b6200033e6200032f565b6200034b81848462000304565b505050565b5b8181101562000373576200036760008262000334565b60018101905062000351565b5050565b601f821115620003c2576200038c8162000236565b62000397846200024b565b81016020851015620003a7578190505b620003bf620003b6856200024b565b83018262000350565b50505b505050565b600082821c905092915050565b6000620003e760001984600802620003c7565b1980831691505092915050565b6000620004028383620003d4565b9150826002028217905092915050565b6200041d8262000198565b67ffffffffffffffff811115620004395762000438620001a3565b5b62000445825462000201565b6200045282828562000377565b600060209050601f8311600181146200048a576000841562000475578287015190505b620004818582620003f4565b865550620004f1565b601f1984166200049a8662000236565b60005b82811015620004c4578489015182556001820191506020850194506020810190506200049d565b86831015620004e45784890151620004e0601f891682620003d4565b8355505b6001600288020188555050505b505050505050565b612e6480620005096000396000f3fe608060405234801561001057600080fd5b50600436106101165760003560e01c8063715018a6116100a2578063b88d4fde11610071578063b88d4fde146102df578063c87b56dd146102fb578063e985e9c51461032b578063eacabe141461035b578063f2fde38b1461038b57610116565b8063715018a61461027d5780638da5cb5b1461028757806395d89b41146102a5578063a22cb465146102c357610116565b806318e97fd1116100e957806318e97fd1146101b557806323b872dd146101e557806342842e0e146102015780636352211e1461021d57806370a082311461024d57610116565b806301ffc9a71461011b57806306fdde031461014b578063081812fc14610169578063095ea7b314610199575b600080fd5b61013560048036038101906101309190611bf9565b6103a7565b6040516101429190611c41565b60405180910390f35b610153610489565b6040516101609190611cec565b60405180910390f35b610183600480360381019061017e9190611d44565b61051b565b6040516101909190611db2565b60405180910390f35b6101b360048036038101906101ae9190611df9565b610561565b005b6101cf60048036038101906101ca9190611f6e565b610678565b6040516101dc9190611cec565b60405180910390f35b6101ff60048036038101906101fa9190611fca565b61068d565b005b61021b60048036038101906102169190611fca565b6106ed565b005b61023760048036038101906102329190611d44565b61070d565b6040516102449190611db2565b60405180910390f35b6102676004803603810190610262919061201d565b610793565b6040516102749190612059565b60405180910390f35b61028561084a565b005b61028f61085e565b60405161029c9190611db2565b60405180910390f35b6102ad610888565b6040516102ba9190611cec565b60405180910390f35b6102dd60048036038101906102d891906120a0565b61091a565b005b6102f960048036038101906102f49190612181565b610930565b005b61031560048036038101906103109190611d44565b610992565b6040516103229190611cec565b60405180910390f35b61034560048036038101906103409190612204565b610aa4565b6040516103529190611c41565b60405180910390f35b61037560048036038101906103709190612244565b610b38565b6040516103829190612059565b60405180910390f35b6103a560048036038101906103a0919061201d565b610b78565b005b60007f80ac58cd000000000000000000000000000000000000000000000000000000007bffffffffffffffffffffffffffffffffffffffffffffffffffffffff1916827bffffffffffffffffffffffffffffffffffffffffffffffffffffffff1916148061047257507f5b5e139f000000000000000000000000000000000000000000000000000000007bffffffffffffffffffffffffffffffffffffffffffffffffffffffff1916827bffffffffffffffffffffffffffffffffffffffffffffffffffffffff1916145b80610482575061048182610bfb565b5b9050919050565b606060008054610498906122cf565b80601f01602080910402602001604051908101604052809291908181526020018280546104c4906122cf565b80156105115780601f106104e657610100808354040283529160200191610511565b820191906000526020600020905b8154815290600101906020018083116104f457829003601f168201915b5050505050905090565b600061052682610c65565b6004600083815260200190815260200160002060009054906101000a900473ffffffffffffffffffffffffffffffffffffffff169050919050565b600061056c8261070d565b90508073ffffffffffffffffffffffffffffffffffffffff168373ffffffffffffffffffffffffffffffffffffffff16036105dc576040517f08c379a00000000000000000000000000000000000000000000000000000000081526004016105d390612372565b60405180910390fd5b8073ffffffffffffffffffffffffffffffffffffffff166105fb610cb0565b73ffffffffffffffffffffffffffffffffffffffff16148061062a575061062981610624610cb0565b610aa4565b5b610669576040517f08c379a000000000000000000000000000000000000000000000000000000000815260040161066090612404565b60405180910390fd5b6106738383610cb8565b505050565b60606106848383610d71565b81905092915050565b61069e610698610cb0565b82610dde565b6106dd576040517f08c379a00000000000000000000000000000000000000000000000000000000081526004016106d490612496565b60405180910390fd5b6106e8838383610e73565b505050565b61070883838360405180602001604052806000815250610930565b505050565b6000806107198361116c565b9050600073ffffffffffffffffffffffffffffffffffffffff168173ffffffffffffffffffffffffffffffffffffffff160361078a576040517f08c379a000000000000000000000000000000000000000000000000000000000815260040161078190612502565b60405180910390fd5b80915050919050565b60008073ffffffffffffffffffffffffffffffffffffffff168273ffffffffffffffffffffffffffffffffffffffff1603610803576040517f08c379a00000000000000000000000000000000000000000000000000000000081526004016107fa90612594565b60405180910390fd5b600360008373ffffffffffffffffffffffffffffffffffffffff1673ffffffffffffffffffffffffffffffffffffffff168152602001908152602001600020549050919050565b6108526111a9565b61085c6000611227565b565b6000600760009054906101000a900473ffffffffffffffffffffffffffffffffffffffff16905090565b606060018054610897906122cf565b80601f01602080910402602001604051908101604052809291908181526020018280546108c3906122cf565b80156109105780601f106108e557610100808354040283529160200191610910565b820191906000526020600020905b8154815290600101906020018083116108f357829003601f168201915b5050505050905090565b61092c610925610cb0565b83836112ed565b5050565b61094161093b610cb0565b83610dde565b610980576040517f08c379a000000000000000000000000000000000000000000000000000000000815260040161097790612496565b60405180910390fd5b61098c84848484611459565b50505050565b606061099d82610c65565b60006006600084815260200190815260200160002080546109bd906122cf565b80601f01602080910402602001604051908101604052809291908181526020018280546109e9906122cf565b8015610a365780601f10610a0b57610100808354040283529160200191610a36565b820191906000526020600020905b815481529060010190602001808311610a1957829003601f168201915b505050505090506000610a476114b5565b90506000815103610a5c578192505050610a9f565b600082511115610a91578082604051602001610a799291906125f0565b60405160208183030381529060405292505050610a9f565b610a9a846114cc565b925050505b919050565b6000600560008473ffffffffffffffffffffffffffffffffffffffff1673ffffffffffffffffffffffffffffffffffffffff16815260200190815260200160002060008373ffffffffffffffffffffffffffffffffffffffff1673ffffffffffffffffffffffffffffffffffffffff16815260200190815260200160002060009054906101000a900460ff16905092915050565b6000610b426111a9565b610b4c6008611534565b6000610b58600861154a565b9050610b648482611558565b610b6e8184610d71565b8091505092915050565b610b806111a9565b600073ffffffffffffffffffffffffffffffffffffffff168173ffffffffffffffffffffffffffffffffffffffff1603610bef576040517f08c379a0000000000000000000000000000000000000000000000000000000008152600401610be690612686565b60405180910390fd5b610bf881611227565b50565b60007f01ffc9a7000000000000000000000000000000000000000000000000000000007bffffffffffffffffffffffffffffffffffffffffffffffffffffffff1916827bffffffffffffffffffffffffffffffffffffffffffffffffffffffff1916149050919050565b610c6e81611775565b610cad576040517f08c379a0000000000000000000000000000000000000000000000000000000008152600401610ca490612502565b60405180910390fd5b50565b600033905090565b816004600083815260200190815260200160002060006101000a81548173ffffffffffffffffffffffffffffffffffffffff021916908373ffffffffffffffffffffffffffffffffffffffff160217905550808273ffffffffffffffffffffffffffffffffffffffff16610d2b8361070d565b73ffffffffffffffffffffffffffffffffffffffff167f8c5be1e5ebec7d5bd14f71427d1e84f3dd0314c0f7b2291e5b200ac8c7c3b92560405160405180910390a45050565b610d7a82611775565b610db9576040517f08c379a0000000000000000000000000000000000000000000000000000000008152600401610db090612718565b60405180910390fd5b80600660008481526020019081526020016000209081610dd991906128e4565b505050565b600080610dea8361070d565b90508073ffffffffffffffffffffffffffffffffffffffff168473ffffffffffffffffffffffffffffffffffffffff161480610e2c5750610e2b8185610aa4565b5b80610e6a57508373ffffffffffffffffffffffffffffffffffffffff16610e528461051b565b73ffffffffffffffffffffffffffffffffffffffff16145b91505092915050565b8273ffffffffffffffffffffffffffffffffffffffff16610e938261070d565b73ffffffffffffffffffffffffffffffffffffffff1614610ee9576040517f08c379a0000000000000000000000000000000000000000000000000000000008152600401610ee090612a28565b60405180910390fd5b600073ffffffffffffffffffffffffffffffffffffffff168273ffffffffffffffffffffffffffffffffffffffff1603610f58576040517f08c379a0000000000000000000000000000000000000000000000000000000008152600401610f4f90612aba565b60405180910390fd5b610f6583838360016117b6565b8273ffffffffffffffffffffffffffffffffffffffff16610f858261070d565b73ffffffffffffffffffffffffffffffffffffffff1614610fdb576040517f08c379a0000000000000000000000000000000000000000000000000000000008152600401610fd290612a28565b60405180910390fd5b6004600082815260200190815260200160002060006101000a81549073ffffffffffffffffffffffffffffffffffffffff02191690556001600360008573ffffffffffffffffffffffffffffffffffffffff1673ffffffffffffffffffffffffffffffffffffffff168152602001908152602001600020600082825403925050819055506001600360008473ffffffffffffffffffffffffffffffffffffffff1673ffffffffffffffffffffffffffffffffffffffff16815260200190815260200160002060008282540192505081905550816002600083815260200190815260200160002060006101000a81548173ffffffffffffffffffffffffffffffffffffffff021916908373ffffffffffffffffffffffffffffffffffffffff160217905550808273ffffffffffffffffffffffffffffffffffffffff168473ffffffffffffffffffffffffffffffffffffffff167fddf252ad1be2c89b69c2b068fc378daa952ba7f163c4a11628f55a4df523b3ef60405160405180910390a461116783838360016117bc565b505050565b60006002600083815260200190815260200160002060009054906101000a900473ffffffffffffffffffffffffffffffffffffffff169050919050565b6111b1610cb0565b73ffffffffffffffffffffffffffffffffffffffff166111cf61085e565b73ffffffffffffffffffffffffffffffffffffffff1614611225576040517f08c379a000000000000000000000000000000000000000000000000000000000815260040161121c90612b26565b60405180910390fd5b565b6000600760009054906101000a900473ffffffffffffffffffffffffffffffffffffffff16905081600760006101000a81548173ffffffffffffffffffffffffffffffffffffffff021916908373ffffffffffffffffffffffffffffffffffffffff1602179055508173ffffffffffffffffffffffffffffffffffffffff168173ffffffffffffffffffffffffffffffffffffffff167f8be0079c531659141344cd1fd0a4f28419497f9722a3daafe3b4186f6b6457e060405160405180910390a35050565b8173ffffffffffffffffffffffffffffffffffffffff168373ffffffffffffffffffffffffffffffffffffffff160361135b576040517f08c379a000000000000000000000000000000000000000000000000000000000815260040161135290612b92565b60405180910390fd5b80600560008573ffffffffffffffffffffffffffffffffffffffff1673ffffffffffffffffffffffffffffffffffffffff16815260200190815260200160002060008473ffffffffffffffffffffffffffffffffffffffff1673ffffffffffffffffffffffffffffffffffffffff16815260200190815260200160002060006101000a81548160ff0219169083151502179055508173ffffffffffffffffffffffffffffffffffffffff168373ffffffffffffffffffffffffffffffffffffffff167f17307eab39ab6107e8899845ad3d59bd9653f200f220920489ca2b5937696c318360405161144c9190611c41565b60405180910390a3505050565b611464848484610e73565b611470848484846117c2565b6114af576040517f08c379a00000000000000000000000000000000000000000000000000000000081526004016114a690612c24565b60405180910390fd5b50505050565b606060405180602001604052806000815250905090565b60606114d782610c65565b60006114e16114b5565b90506000815111611501576040518060200160405280600081525061152c565b8061150b84611949565b60405160200161151c9291906125f0565b6040516020818303038152906040525b915050919050565b6001816000016000828254019250508190555050565b600081600001549050919050565b600073ffffffffffffffffffffffffffffffffffffffff168273ffffffffffffffffffffffffffffffffffffffff16036115c7576040517f08c379a00000000000000000000000000000000000000000000000000000000081526004016115be90612c90565b60405180910390fd5b6115d081611775565b15611610576040517f08c379a000000000000000000000000000000000000000000000000000000000815260040161160790612cfc565b60405180910390fd5b61161e6000838360016117b6565b61162781611775565b15611667576040517f08c379a000000000000000000000000000000000000000000000000000000000815260040161165e90612cfc565b60405180910390fd5b6001600360008473ffffffffffffffffffffffffffffffffffffffff1673ffffffffffffffffffffffffffffffffffffffff16815260200190815260200160002060008282540192505081905550816002600083815260200190815260200160002060006101000a81548173ffffffffffffffffffffffffffffffffffffffff021916908373ffffffffffffffffffffffffffffffffffffffff160217905550808273ffffffffffffffffffffffffffffffffffffffff16600073ffffffffffffffffffffffffffffffffffffffff167fddf252ad1be2c89b69c2b068fc378daa952ba7f163c4a11628f55a4df523b3ef60405160405180910390a46117716000838360016117bc565b5050565b60008073ffffffffffffffffffffffffffffffffffffffff166117978361116c565b73ffffffffffffffffffffffffffffffffffffffff1614159050919050565b50505050565b50505050565b60006117e38473ffffffffffffffffffffffffffffffffffffffff16611a17565b1561193c578373ffffffffffffffffffffffffffffffffffffffff1663150b7a0261180c610cb0565b8786866040518563ffffffff1660e01b815260040161182e9493929190612d71565b6020604051808303816000875af192505050801561186a57506040513d601f19601f820116820180604052508101906118679190612dd2565b60015b6118ec573d806000811461189a576040519150601f19603f3d011682016040523d82523d6000602084013e61189f565b606091505b5060008151036118e4576040517f08c379a00000000000000000000000000000000000000000000000000000000081526004016118db90612c24565b60405180910390fd5b805181602001fd5b63150b7a0260e01b7bffffffffffffffffffffffffffffffffffffffffffffffffffffffff1916817bffffffffffffffffffffffffffffffffffffffffffffffffffffffff191614915050611941565b600190505b949350505050565b60606000600161195884611a3a565b01905060008167ffffffffffffffff81111561197757611976611e43565b5b6040519080825280601f01601f1916602001820160405280156119a95781602001600182028036833780820191505090505b509050600082602001820190505b600115611a0c578080600190039150507f3031323334353637383961626364656600000000000000000000000000000000600a86061a8153600a8581611a00576119ff612dff565b5b049450600085036119b7575b819350505050919050565b6000808273ffffffffffffffffffffffffffffffffffffffff163b119050919050565b600080600090507a184f03e93ff9f4daa797ed6e38ed64bf6a1f0100000000000000008310611a98577a184f03e93ff9f4daa797ed6e38ed64bf6a1f0100000000000000008381611a8e57611a8d612dff565b5b0492506040810190505b6d04ee2d6d415b85acef81000000008310611ad5576d04ee2d6d415b85acef81000000008381611acb57611aca612dff565b5b0492506020810190505b662386f26fc100008310611b0457662386f26fc100008381611afa57611af9612dff565b5b0492506010810190505b6305f5e1008310611b2d576305f5e1008381611b2357611b22612dff565b5b0492506008810190505b6127108310611b52576127108381611b4857611b47612dff565b5b0492506004810190505b60648310611b755760648381611b6b57611b6a612dff565b5b0492506002810190505b600a8310611b84576001810190505b80915050919050565b6000604051905090565b600080fd5b600080fd5b60007fffffffff0000000000000000000000000000000000000000000000000000000082169050919050565b611bd681611ba1565b8114611be157600080fd5b50565b600081359050611bf381611bcd565b92915050565b600060208284031215611c0f57611c0e611b97565b5b6000611c1d84828501611be4565b91505092915050565b60008115159050919050565b611c3b81611c26565b82525050565b6000602082019050611c566000830184611c32565b92915050565b600081519050919050565b600082825260208201905092915050565b60005b83811015611c96578082015181840152602081019050611c7b565b60008484015250505050565b6000601f19601f8301169050919050565b6000611cbe82611c5c565b611cc88185611c67565b9350611cd8818560208601611c78565b611ce181611ca2565b840191505092915050565b60006020820190508181036000830152611d068184611cb3565b905092915050565b6000819050919050565b611d2181611d0e565b8114611d2c57600080fd5b50565b600081359050611d3e81611d18565b92915050565b600060208284031215611d5a57611d59611b97565b5b6000611d6884828501611d2f565b91505092915050565b600073ffffffffffffffffffffffffffffffffffffffff82169050919050565b6000611d9c82611d71565b9050919050565b611dac81611d91565b82525050565b6000602082019050611dc76000830184611da3565b92915050565b611dd681611d91565b8114611de157600080fd5b50565b600081359050611df381611dcd565b92915050565b60008060408385031215611e1057611e0f611b97565b5b6000611e1e85828601611de4565b9250506020611e2f85828601611d2f565b9150509250929050565b600080fd5b600080fd5b7f4e487b7100000000000000000000000000000000000000000000000000000000600052604160045260246000fd5b611e7b82611ca2565b810181811067ffffffffffffffff82111715611e9a57611e99611e43565b5b80604052505050565b6000611ead611b8d565b9050611eb98282611e72565b919050565b600067ffffffffffffffff821115611ed957611ed8611e43565b5b611ee282611ca2565b9050602081019050919050565b82818337600083830152505050565b6000611f11611f0c84611ebe565b611ea3565b905082815260208101848484011115611f2d57611f2c611e3e565b5b611f38848285611eef565b509392505050565b600082601f830112611f5557611f54611e39565b5b8135611f65848260208601611efe565b91505092915050565b60008060408385031215611f8557611f84611b97565b5b6000611f9385828601611d2f565b925050602083013567ffffffffffffffff811115611fb457611fb3611b9c565b5b611fc085828601611f40565b9150509250929050565b600080600060608486031215611fe357611fe2611b97565b5b6000611ff186828701611de4565b935050602061200286828701611de4565b925050604061201386828701611d2f565b9150509250925092565b60006020828403121561203357612032611b97565b5b600061204184828501611de4565b91505092915050565b61205381611d0e565b82525050565b600060208201905061206e600083018461204a565b92915050565b61207d81611c26565b811461208857600080fd5b50565b60008135905061209a81612074565b92915050565b600080604083850312156120b7576120b6611b97565b5b60006120c585828601611de4565b92505060206120d68582860161208b565b9150509250929050565b600067ffffffffffffffff8211156120fb576120fa611e43565b5b61210482611ca2565b9050602081019050919050565b600061212461211f846120e0565b611ea3565b9050828152602081018484840111156121405761213f611e3e565b5b61214b848285611eef565b509392505050565b600082601f83011261216857612167611e39565b5b8135612178848260208601612111565b91505092915050565b6000806000806080858703121561219b5761219a611b97565b5b60006121a987828801611de4565b94505060206121ba87828801611de4565b93505060406121cb87828801611d2f565b925050606085013567ffffffffffffffff8111156121ec576121eb611b9c565b5b6121f887828801612153565b91505092959194509250565b6000806040838503121561221b5761221a611b97565b5b600061222985828601611de4565b925050602061223a85828601611de4565b9150509250929050565b6000806040838503121561225b5761225a611b97565b5b600061226985828601611de4565b925050602083013567ffffffffffffffff81111561228a57612289611b9c565b5b61229685828601611f40565b9150509250929050565b7f4e487b7100000000000000000000000000000000000000000000000000000000600052602260045260246000fd5b600060028204905060018216806122e757607f821691505b6020821081036122fa576122f96122a0565b5b50919050565b7f4552433732313a20617070726f76616c20746f2063757272656e74206f776e6560008201527f7200000000000000000000000000000000000000000000000000000000000000602082015250565b600061235c602183611c67565b915061236782612300565b604082019050919050565b6000602082019050818103600083015261238b8161234f565b9050919050565b7f4552433732313a20617070726f76652063616c6c6572206973206e6f7420746f60008201527f6b656e206f776e6572206f7220617070726f76656420666f7220616c6c000000602082015250565b60006123ee603d83611c67565b91506123f982612392565b604082019050919050565b6000602082019050818103600083015261241d816123e1565b9050919050565b7f4552433732313a2063616c6c6572206973206e6f7420746f6b656e206f776e6560008201527f72206f7220617070726f76656400000000000000000000000000000000000000602082015250565b6000612480602d83611c67565b915061248b82612424565b604082019050919050565b600060208201905081810360008301526124af81612473565b9050919050565b7f4552433732313a20696e76616c696420746f6b656e2049440000000000000000600082015250565b60006124ec601883611c67565b91506124f7826124b6565b602082019050919050565b6000602082019050818103600083015261251b816124df565b9050919050565b7f4552433732313a2061646472657373207a65726f206973206e6f74206120766160008201527f6c6964206f776e65720000000000000000000000000000000000000000000000602082015250565b600061257e602983611c67565b915061258982612522565b604082019050919050565b600060208201905081810360008301526125ad81612571565b9050919050565b600081905092915050565b60006125ca82611c5c565b6125d481856125b4565b93506125e4818560208601611c78565b80840191505092915050565b60006125fc82856125bf565b915061260882846125bf565b91508190509392505050565b7f4f776e61626c653a206e6577206f776e657220697320746865207a65726f206160008201527f6464726573730000000000000000000000000000000000000000000000000000602082015250565b6000612670602683611c67565b915061267b82612614565b604082019050919050565b6000602082019050818103600083015261269f81612663565b9050919050565b7f45524337323155524953746f726167653a2055524920736574206f66206e6f6e60008201527f6578697374656e7420746f6b656e000000000000000000000000000000000000602082015250565b6000612702602e83611c67565b915061270d826126a6565b604082019050919050565b60006020820190508181036000830152612731816126f5565b9050919050565b60008190508160005260206000209050919050565b60006020601f8301049050919050565b600082821b905092915050565b60006008830261279a7fffffffffffffffffffffffffffffffffffffffffffffffffffffffffffffffff8261275d565b6127a4868361275d565b95508019841693508086168417925050509392505050565b6000819050919050565b60006127e16127dc6127d784611d0e565b6127bc565b611d0e565b9050919050565b6000819050919050565b6127fb836127c6565b61280f612807826127e8565b84845461276a565b825550505050565b600090565b612824612817565b61282f8184846127f2565b505050565b5b818110156128535761284860008261281c565b600181019050612835565b5050565b601f8211156128985761286981612738565b6128728461274d565b81016020851015612881578190505b61289561288d8561274d565b830182612834565b50505b505050565b600082821c905092915050565b60006128bb6000198460080261289d565b1980831691505092915050565b60006128d483836128aa565b9150826002028217905092915050565b6128ed82611c5c565b67ffffffffffffffff81111561290657612905611e43565b5b61291082546122cf565b61291b828285612857565b600060209050601f83116001811461294e576000841561293c578287015190505b61294685826128c8565b8655506129ae565b601f19841661295c86612738565b60005b828110156129845784890151825560018201915060208501945060208101905061295f565b868310156129a1578489015161299d601f8916826128aa565b8355505b6001600288020188555050505b505050505050565b7f4552433732313a207472616e736665722066726f6d20696e636f72726563742060008201527f6f776e6572000000000000000000000000000000000000000000000000000000602082015250565b6000612a12602583611c67565b9150612a1d826129b6565b604082019050919050565b60006020820190508181036000830152612a4181612a05565b9050919050565b7f4552433732313a207472616e7366657220746f20746865207a65726f2061646460008201527f7265737300000000000000000000000000000000000000000000000000000000602082015250565b6000612aa4602483611c67565b9150612aaf82612a48565b604082019050919050565b60006020820190508181036000830152612ad381612a97565b9050919050565b7f4f776e61626c653a2063616c6c6572206973206e6f7420746865206f776e6572600082015250565b6000612b10602083611c67565b9150612b1b82612ada565b602082019050919050565b60006020820190508181036000830152612b3f81612b03565b9050919050565b7f4552433732313a20617070726f766520746f2063616c6c657200000000000000600082015250565b6000612b7c601983611c67565b9150612b8782612b46565b602082019050919050565b60006020820190508181036000830152612bab81612b6f565b9050919050565b7f4552433732313a207472616e7366657220746f206e6f6e20455243373231526560008201527f63656976657220696d706c656d656e7465720000000000000000000000000000602082015250565b6000612c0e603283611c67565b9150612c1982612bb2565b604082019050919050565b60006020820190508181036000830152612c3d81612c01565b9050919050565b7f4552433732313a206d696e7420746f20746865207a65726f2061646472657373600082015250565b6000612c7a602083611c67565b9150612c8582612c44565b602082019050919050565b60006020820190508181036000830152612ca981612c6d565b9050919050565b7f4552433732313a20746f6b656e20616c7265616479206d696e74656400000000600082015250565b6000612ce6601c83611c67565b9150612cf182612cb0565b602082019050919050565b60006020820190508181036000830152612d1581612cd9565b9050919050565b600081519050919050565b600082825260208201905092915050565b6000612d4382612d1c565b612d4d8185612d27565b9350612d5d818560208601611c78565b612d6681611ca2565b840191505092915050565b6000608082019050612d866000830187611da3565b612d936020830186611da3565b612da0604083018561204a565b8181036060830152612db28184612d38565b905095945050505050565b600081519050612dcc81611bcd565b92915050565b600060208284031215612de857612de7611b97565b5b6000612df684828501612dbd565b91505092915050565b7f4e487b7100000000000000000000000000000000000000000000000000000000600052601260045260246000fdfea2646970667358221220effd9d9d2d0927b0a39c03613ff9fc7606b1a7292626924fd86e8f221891eacb64736f6c63430008110033",
  "linkReferences": {},
  "deployedLinkReferences": {}
}