{
  "_format": "hh-sol-artifact-1",
  "contractName": "myNFT",
  "sourceName": "contracts/myNFT.sol",
  "abi": [
    {
      "inputs": [],
      "stateMutability": "nonpayable",
      "type": "constructor"
    },
    {
      "anonymous": false,
      "inputs": [
        {
          "indexed": true,
          "internalType": "address",
          "name": "owner",
          "type": "address"
        },
        {
          "indexed": true,
          "internalType": "address",
          "name": "approved",
          "type": "address"
        },
        {
          "indexed": true,
          "internalType": "uint256",
          "name": "tokenId",
          "type": "uint256"
        }
      ],
      "name": "Approval",
      "type": "event"
    },
    {
      "anonymous": false,
      "inputs": [
        {
          "indexed": true,
          "internalType": "address",
          "name": "owner",
          "type": "address"
        },
        {
          "indexed": true,
          "internalType": "address",
          "name": "operator",
          "type": "address"
        },
        {
          "indexed": false,
          "internalType": "bool",
          "name": "approved",
          "type": "bool"
        }
      ],
      "name": "ApprovalForAll",
      "type": "event"
    },
    {
      "anonymous": false,
      "inputs": [
        {
          "indexed": true,
          "internalType": "address",
          "name": "from",
          "type": "address"
        },
        {
          "indexed": true,
          "internalType": "address",
          "name": "to",
          "type": "address"
        },
        {
          "indexed": true,
          "internalType": "uint256",
          "name": "tokenId",
          "type": "uint256"
        }
      ],
      "name": "Transfer",
      "type": "event"
    },
    {
      "inputs": [
        {
          "internalType": "address",
          "name": "to",
          "type": "address"
        },
        {
          "internalType": "uint256",
          "name": "tokenId",
          "type": "uint256"
        }
      ],
      "name": "approve",
      "outputs": [],
      "stateMutability": "nonpayable",
      "type": "function"
    },
    {
      "inputs": [
        {
          "internalType": "address",
          "name": "owner",
          "type": "address"
        }
      ],
      "name": "balanceOf",
      "outputs": [
        {
          "internalType": "uint256",
          "name": "",
          "type": "uint256"
        }
      ],
      "stateMutability": "view",
      "type": "function"
    },
    {
      "inputs": [
        {
          "internalType": "uint256",
          "name": "tokenId",
          "type": "uint256"
        }
      ],
      "name": "getApproved",
      "outputs": [
        {
          "internalType": "address",
          "name": "",
          "type": "address"
        }
      ],
      "stateMutability": "view",
      "type": "function"
    },
    {
      "inputs": [
        {
          "internalType": "address",
          "name": "owner",
          "type": "address"
        },
        {
          "internalType": "address",
          "name": "operator",
          "type": "address"
        }
      ],
      "name": "isApprovedForAll",
      "outputs": [
        {
          "internalType": "bool",
          "name": "",
          "type": "bool"
        }
      ],
      "stateMutability": "view",
      "type": "function"
    },
    {
      "inputs": [],
      "name": "name",
      "outputs": [
        {
          "internalType": "string",
          "name": "",
          "type": "string"
        }
      ],
      "stateMutability": "view",
      "type": "function"
    },
    {
      "inputs": [
        {
          "internalType": "uint256",
          "name": "tokenId",
          "type": "uint256"
        }
      ],
      "name": "ownerOf",
      "outputs": [
        {
          "internalType": "address",
          "name": "",
          "type": "address"
        }
      ],
      "stateMutability": "view",
      "type": "function"
    },
    {
      "inputs": [],
      "name": "safeMint",
      "outputs": [],
      "stateMutability": "nonpayable",
      "type": "function"
    },
    {
      "inputs": [
        {
          "internalType": "address",
          "name": "from",
          "type": "address"
        },
        {
          "internalType": "address",
          "name": "to",
          "type": "address"
        },
        {
          "internalType": "uint256",
          "name": "tokenId",
          "type": "uint256"
        }
      ],
      "name": "safeTransferFrom",
      "outputs": [],
      "stateMutability": "nonpayable",
      "type": "function"
    },
    {
      "inputs": [
        {
          "internalType": "address",
          "name": "from",
          "type": "address"
        },
        {
          "internalType": "address",
          "name": "to",
          "type": "address"
        },
        {
          "internalType": "uint256",
          "name": "tokenId",
          "type": "uint256"
        },
        {
          "internalType": "bytes",
          "name": "data",
          "type": "bytes"
        }
      ],
      "name": "safeTransferFrom",
      "outputs": [],
      "stateMutability": "nonpayable",
      "type": "function"
    },
    {
      "inputs": [
        {
          "internalType": "address",
          "name": "operator",
          "type": "address"
        },
        {
          "internalType": "bool",
          "name": "approved",
          "type": "bool"
        }
      ],
      "name": "setApprovalForAll",
      "outputs": [],
      "stateMutability": "nonpayable",
      "type": "function"
    },
    {
      "inputs": [
        {
          "internalType": "bytes4",
          "name": "interfaceId",
          "type": "bytes4"
        }
      ],
      "name": "supportsInterface",
      "outputs": [
        {
          "internalType": "bool",
          "name": "",
          "type": "bool"
        }
      ],
      "stateMutability": "view",
      "type": "function"
    },
    {
      "inputs": [],
      "name": "symbol",
      "outputs": [
        {
          "internalType": "string",
          "name": "",
          "type": "string"
        }
      ],
      "stateMutability": "view",
      "type": "function"
    },
    {
      "inputs": [
        {
          "internalType": "uint256",
          "name": "tokenId",
          "type": "uint256"
        }
      ],
      "name": "tokenURI",
      "outputs": [
        {
          "internalType": "string",
          "name": "",
          "type": "string"
        }
      ],
      "stateMutability": "pure",
      "type": "function"
    },
    {
      "inputs": [
        {
          "internalType": "address",
          "name": "from",
          "type": "address"
        },
        {
          "internalType": "address",
          "name": "to",
          "type": "address"
        },
        {
          "internalType": "uint256",
          "name": "tokenId",
          "type": "uint256"
        }
      ],
      "name": "transferFrom",
      "outputs": [],
      "stateMutability": "nonpayable",
      "type": "function"
    }
  ],
  "bytecode": "0x60806040523480156200001157600080fd5b506040518060400160405280600981526020017f7369642773204e465400000000000000000000000000000000000000000000008152506040518060400160405280600381526020017f584944000000000000000000000000000000000000000000000000000000000081525081600090816200008f919062000324565b508060019081620000a1919062000324565b5050506200040b565b600081519050919050565b7f4e487b7100000000000000000000000000000000000000000000000000000000600052604160045260246000fd5b7f4e487b7100000000000000000000000000000000000000000000000000000000600052602260045260246000fd5b600060028204905060018216806200012c57607f821691505b602082108103620001425762000141620000e4565b5b50919050565b60008190508160005260206000209050919050565b60006020601f8301049050919050565b600082821b905092915050565b600060088302620001ac7fffffffffffffffffffffffffffffffffffffffffffffffffffffffffffffffff826200016d565b620001b886836200016d565b95508019841693508086168417925050509392505050565b6000819050919050565b6000819050919050565b600062000205620001ff620001f984620001d0565b620001da565b620001d0565b9050919050565b6000819050919050565b6200022183620001e4565b6200023962000230826200020c565b8484546200017a565b825550505050565b600090565b6200025062000241565b6200025d81848462000216565b505050565b5b8181101562000285576200027960008262000246565b60018101905062000263565b5050565b601f821115620002d4576200029e8162000148565b620002a9846200015d565b81016020851015620002b9578190505b620002d1620002c8856200015d565b83018262000262565b50505b505050565b600082821c905092915050565b6000620002f960001984600802620002d9565b1980831691505092915050565b6000620003148383620002e6565b9150826002028217905092915050565b6200032f82620000aa565b67ffffffffffffffff8111156200034b576200034a620000b5565b5b62000357825462000113565b6200036482828562000289565b600060209050601f8311600181146200039c576000841562000387578287015190505b62000393858262000306565b86555062000403565b601f198416620003ac8662000148565b60005b82811015620003d657848901518255600182019150602085019450602081019050620003af565b86831015620003f65784890151620003f2601f891682620002e6565b8355505b6001600288020188555050505b505050505050565b6126a1806200041b6000396000f3fe608060405234801561001057600080fd5b50600436106100ea5760003560e01c80636871ee401161008c578063a22cb46511610066578063a22cb46514610249578063b88d4fde14610265578063c87b56dd14610281578063e985e9c5146102b1576100ea565b80636871ee40146101f157806370a08231146101fb57806395d89b411461022b576100ea565b8063095ea7b3116100c8578063095ea7b31461016d57806323b872dd1461018957806342842e0e146101a55780636352211e146101c1576100ea565b806301ffc9a7146100ef57806306fdde031461011f578063081812fc1461013d575b600080fd5b6101096004803603810190610104919061182b565b6102e1565b6040516101169190611873565b60405180910390f35b6101276103c3565b604051610134919061191e565b60405180910390f35b61015760048036038101906101529190611976565b610455565b60405161016491906119e4565b60405180910390f35b61018760048036038101906101829190611a2b565b61049b565b005b6101a3600480360381019061019e9190611a6b565b6105b2565b005b6101bf60048036038101906101ba9190611a6b565b610612565b005b6101db60048036038101906101d69190611976565b610632565b6040516101e891906119e4565b60405180910390f35b6101f96106b8565b005b61021560048036038101906102109190611abe565b61072f565b6040516102229190611afa565b60405180910390f35b6102336107e6565b604051610240919061191e565b60405180910390f35b610263600480360381019061025e9190611b41565b610878565b005b61027f600480360381019061027a9190611cb6565b61088e565b005b61029b60048036038101906102969190611976565b6108f0565b6040516102a8919061191e565b60405180910390f35b6102cb60048036038101906102c69190611d39565b610930565b6040516102d89190611873565b60405180910390f35b60007f80ac58cd000000000000000000000000000000000000000000000000000000007bffffffffffffffffffffffffffffffffffffffffffffffffffffffff1916827bffffffffffffffffffffffffffffffffffffffffffffffffffffffff191614806103ac57507f5b5e139f000000000000000000000000000000000000000000000000000000007bffffffffffffffffffffffffffffffffffffffffffffffffffffffff1916827bffffffffffffffffffffffffffffffffffffffffffffffffffffffff1916145b806103bc57506103bb826109c4565b5b9050919050565b6060600080546103d290611da8565b80601f01602080910402602001604051908101604052809291908181526020018280546103fe90611da8565b801561044b5780601f106104205761010080835404028352916020019161044b565b820191906000526020600020905b81548152906001019060200180831161042e57829003601f168201915b5050505050905090565b600061046082610a2e565b6004600083815260200190815260200160002060009054906101000a900473ffffffffffffffffffffffffffffffffffffffff169050919050565b60006104a682610632565b90508073ffffffffffffffffffffffffffffffffffffffff168373ffffffffffffffffffffffffffffffffffffffff1603610516576040517f08c379a000000000000000000000000000000000000000000000000000000000815260040161050d90611e4b565b60405180910390fd5b8073ffffffffffffffffffffffffffffffffffffffff16610535610a79565b73ffffffffffffffffffffffffffffffffffffffff16148061056457506105638161055e610a79565b610930565b5b6105a3576040517f08c379a000000000000000000000000000000000000000000000000000000000815260040161059a90611edd565b60405180910390fd5b6105ad8383610a81565b505050565b6105c36105bd610a79565b82610b3a565b610602576040517f08c379a00000000000000000000000000000000000000000000000000000000081526004016105f990611f6f565b60405180910390fd5b61060d838383610bcf565b505050565b61062d8383836040518060200160405280600081525061088e565b505050565b60008061063e83610ec8565b9050600073ffffffffffffffffffffffffffffffffffffffff168173ffffffffffffffffffffffffffffffffffffffff16036106af576040517f08c379a00000000000000000000000000000000000000000000000000000000081526004016106a690611fdb565b60405180910390fd5b80915050919050565b6106ca6106c56006610f05565b610f13565b1561070a576040517f08c379a000000000000000000000000000000000000000000000000000000000815260040161070190612047565b60405180910390fd5b60006107166006610f05565b90506107223382610f54565b61072c6006610f72565b50565b60008073ffffffffffffffffffffffffffffffffffffffff168273ffffffffffffffffffffffffffffffffffffffff160361079f576040517f08c379a0000000000000000000000000000000000000000000000000000000008152600401610796906120d9565b60405180910390fd5b600360008373ffffffffffffffffffffffffffffffffffffffff1673ffffffffffffffffffffffffffffffffffffffff168152602001908152602001600020549050919050565b6060600180546107f590611da8565b80601f016020809104026020016040519081016040528092919081815260200182805461082190611da8565b801561086e5780601f106108435761010080835404028352916020019161086e565b820191906000526020600020905b81548152906001019060200180831161085157829003601f168201915b5050505050905090565b61088a610883610a79565b8383610f88565b5050565b61089f610899610a79565b83610b3a565b6108de576040517f08c379a00000000000000000000000000000000000000000000000000000000081526004016108d590611f6f565b60405180910390fd5b6108ea848484846110f4565b50505050565b606060006108fc611150565b61090584611170565b6040516020016109169291906121cd565b604051602081830303815290604052905080915050919050565b6000600560008473ffffffffffffffffffffffffffffffffffffffff1673ffffffffffffffffffffffffffffffffffffffff16815260200190815260200160002060008373ffffffffffffffffffffffffffffffffffffffff1673ffffffffffffffffffffffffffffffffffffffff16815260200190815260200160002060009054906101000a900460ff16905092915050565b60007f01ffc9a7000000000000000000000000000000000000000000000000000000007bffffffffffffffffffffffffffffffffffffffffffffffffffffffff1916827bffffffffffffffffffffffffffffffffffffffffffffffffffffffff1916149050919050565b610a3781610f13565b610a76576040517f08c379a0000000000000000000000000000000000000000000000000000000008152600401610a6d90611fdb565b60405180910390fd5b50565b600033905090565b816004600083815260200190815260200160002060006101000a81548173ffffffffffffffffffffffffffffffffffffffff021916908373ffffffffffffffffffffffffffffffffffffffff160217905550808273ffffffffffffffffffffffffffffffffffffffff16610af483610632565b73ffffffffffffffffffffffffffffffffffffffff167f8c5be1e5ebec7d5bd14f71427d1e84f3dd0314c0f7b2291e5b200ac8c7c3b92560405160405180910390a45050565b600080610b4683610632565b90508073ffffffffffffffffffffffffffffffffffffffff168473ffffffffffffffffffffffffffffffffffffffff161480610b885750610b878185610930565b5b80610bc657508373ffffffffffffffffffffffffffffffffffffffff16610bae84610455565b73ffffffffffffffffffffffffffffffffffffffff16145b91505092915050565b8273ffffffffffffffffffffffffffffffffffffffff16610bef82610632565b73ffffffffffffffffffffffffffffffffffffffff1614610c45576040517f08c379a0000000000000000000000000000000000000000000000000000000008152600401610c3c90612279565b60405180910390fd5b600073ffffffffffffffffffffffffffffffffffffffff168273ffffffffffffffffffffffffffffffffffffffff1603610cb4576040517f08c379a0000000000000000000000000000000000000000000000000000000008152600401610cab9061230b565b60405180910390fd5b610cc1838383600161123e565b8273ffffffffffffffffffffffffffffffffffffffff16610ce182610632565b73ffffffffffffffffffffffffffffffffffffffff1614610d37576040517f08c379a0000000000000000000000000000000000000000000000000000000008152600401610d2e90612279565b60405180910390fd5b6004600082815260200190815260200160002060006101000a81549073ffffffffffffffffffffffffffffffffffffffff02191690556001600360008573ffffffffffffffffffffffffffffffffffffffff1673ffffffffffffffffffffffffffffffffffffffff168152602001908152602001600020600082825403925050819055506001600360008473ffffffffffffffffffffffffffffffffffffffff1673ffffffffffffffffffffffffffffffffffffffff16815260200190815260200160002060008282540192505081905550816002600083815260200190815260200160002060006101000a81548173ffffffffffffffffffffffffffffffffffffffff021916908373ffffffffffffffffffffffffffffffffffffffff160217905550808273ffffffffffffffffffffffffffffffffffffffff168473ffffffffffffffffffffffffffffffffffffffff167fddf252ad1be2c89b69c2b068fc378daa952ba7f163c4a11628f55a4df523b3ef60405160405180910390a4610ec38383836001611244565b505050565b60006002600083815260200190815260200160002060009054906101000a900473ffffffffffffffffffffffffffffffffffffffff169050919050565b600081600001549050919050565b60008073ffffffffffffffffffffffffffffffffffffffff16610f3583610ec8565b73ffffffffffffffffffffffffffffffffffffffff1614159050919050565b610f6e82826040518060200160405280600081525061124a565b5050565b6001816000016000828254019250508190555050565b8173ffffffffffffffffffffffffffffffffffffffff168373ffffffffffffffffffffffffffffffffffffffff1603610ff6576040517f08c379a0000000000000000000000000000000000000000000000000000000008152600401610fed90612377565b60405180910390fd5b80600560008573ffffffffffffffffffffffffffffffffffffffff1673ffffffffffffffffffffffffffffffffffffffff16815260200190815260200160002060008473ffffffffffffffffffffffffffffffffffffffff1673ffffffffffffffffffffffffffffffffffffffff16815260200190815260200160002060006101000a81548160ff0219169083151502179055508173ffffffffffffffffffffffffffffffffffffffff168373ffffffffffffffffffffffffffffffffffffffff167f17307eab39ab6107e8899845ad3d59bd9653f200f220920489ca2b5937696c31836040516110e79190611873565b60405180910390a3505050565b6110ff848484610bcf565b61110b848484846112a5565b61114a576040517f08c379a000000000000000000000000000000000000000000000000000000000815260040161114190612409565b60405180910390fd5b50505050565b606060405180608001604052806058815260200161261460589139905090565b60606000600161117f8461142c565b01905060008167ffffffffffffffff81111561119e5761119d611b8b565b5b6040519080825280601f01601f1916602001820160405280156111d05781602001600182028036833780820191505090505b509050600082602001820190505b600115611233578080600190039150507f3031323334353637383961626364656600000000000000000000000000000000600a86061a8153600a858161122757611226612429565b5b049450600085036111de575b819350505050919050565b50505050565b50505050565b611254838361157f565b61126160008484846112a5565b6112a0576040517f08c379a000000000000000000000000000000000000000000000000000000000815260040161129790612409565b60405180910390fd5b505050565b60006112c68473ffffffffffffffffffffffffffffffffffffffff1661179c565b1561141f578373ffffffffffffffffffffffffffffffffffffffff1663150b7a026112ef610a79565b8786866040518563ffffffff1660e01b815260040161131194939291906124ad565b6020604051808303816000875af192505050801561134d57506040513d601f19601f8201168201806040525081019061134a919061250e565b60015b6113cf573d806000811461137d576040519150601f19603f3d011682016040523d82523d6000602084013e611382565b606091505b5060008151036113c7576040517f08c379a00000000000000000000000000000000000000000000000000000000081526004016113be90612409565b60405180910390fd5b805181602001fd5b63150b7a0260e01b7bffffffffffffffffffffffffffffffffffffffffffffffffffffffff1916817bffffffffffffffffffffffffffffffffffffffffffffffffffffffff191614915050611424565b600190505b949350505050565b600080600090507a184f03e93ff9f4daa797ed6e38ed64bf6a1f010000000000000000831061148a577a184f03e93ff9f4daa797ed6e38ed64bf6a1f01000000000000000083816114805761147f612429565b5b0492506040810190505b6d04ee2d6d415b85acef810000000083106114c7576d04ee2d6d415b85acef810000000083816114bd576114bc612429565b5b0492506020810190505b662386f26fc1000083106114f657662386f26fc1000083816114ec576114eb612429565b5b0492506010810190505b6305f5e100831061151f576305f5e100838161151557611514612429565b5b0492506008810190505b612710831061154457612710838161153a57611539612429565b5b0492506004810190505b60648310611567576064838161155d5761155c612429565b5b0492506002810190505b600a8310611576576001810190505b80915050919050565b600073ffffffffffffffffffffffffffffffffffffffff168273ffffffffffffffffffffffffffffffffffffffff16036115ee576040517f08c379a00000000000000000000000000000000000000000000000000000000081526004016115e590612587565b60405180910390fd5b6115f781610f13565b15611637576040517f08c379a000000000000000000000000000000000000000000000000000000000815260040161162e906125f3565b60405180910390fd5b61164560008383600161123e565b61164e81610f13565b1561168e576040517f08c379a0000000000000000000000000000000000000000000000000000000008152600401611685906125f3565b60405180910390fd5b6001600360008473ffffffffffffffffffffffffffffffffffffffff1673ffffffffffffffffffffffffffffffffffffffff16815260200190815260200160002060008282540192505081905550816002600083815260200190815260200160002060006101000a81548173ffffffffffffffffffffffffffffffffffffffff021916908373ffffffffffffffffffffffffffffffffffffffff160217905550808273ffffffffffffffffffffffffffffffffffffffff16600073ffffffffffffffffffffffffffffffffffffffff167fddf252ad1be2c89b69c2b068fc378daa952ba7f163c4a11628f55a4df523b3ef60405160405180910390a4611798600083836001611244565b5050565b6000808273ffffffffffffffffffffffffffffffffffffffff163b119050919050565b6000604051905090565b600080fd5b600080fd5b60007fffffffff0000000000000000000000000000000000000000000000000000000082169050919050565b611808816117d3565b811461181357600080fd5b50565b600081359050611825816117ff565b92915050565b600060208284031215611841576118406117c9565b5b600061184f84828501611816565b91505092915050565b60008115159050919050565b61186d81611858565b82525050565b60006020820190506118886000830184611864565b92915050565b600081519050919050565b600082825260208201905092915050565b60005b838110156118c85780820151818401526020810190506118ad565b60008484015250505050565b6000601f19601f8301169050919050565b60006118f08261188e565b6118fa8185611899565b935061190a8185602086016118aa565b611913816118d4565b840191505092915050565b6000602082019050818103600083015261193881846118e5565b905092915050565b6000819050919050565b61195381611940565b811461195e57600080fd5b50565b6000813590506119708161194a565b92915050565b60006020828403121561198c5761198b6117c9565b5b600061199a84828501611961565b91505092915050565b600073ffffffffffffffffffffffffffffffffffffffff82169050919050565b60006119ce826119a3565b9050919050565b6119de816119c3565b82525050565b60006020820190506119f960008301846119d5565b92915050565b611a08816119c3565b8114611a1357600080fd5b50565b600081359050611a25816119ff565b92915050565b60008060408385031215611a4257611a416117c9565b5b6000611a5085828601611a16565b9250506020611a6185828601611961565b9150509250929050565b600080600060608486031215611a8457611a836117c9565b5b6000611a9286828701611a16565b9350506020611aa386828701611a16565b9250506040611ab486828701611961565b9150509250925092565b600060208284031215611ad457611ad36117c9565b5b6000611ae284828501611a16565b91505092915050565b611af481611940565b82525050565b6000602082019050611b0f6000830184611aeb565b92915050565b611b1e81611858565b8114611b2957600080fd5b50565b600081359050611b3b81611b15565b92915050565b60008060408385031215611b5857611b576117c9565b5b6000611b6685828601611a16565b9250506020611b7785828601611b2c565b9150509250929050565b600080fd5b600080fd5b7f4e487b7100000000000000000000000000000000000000000000000000000000600052604160045260246000fd5b611bc3826118d4565b810181811067ffffffffffffffff82111715611be257611be1611b8b565b5b80604052505050565b6000611bf56117bf565b9050611c018282611bba565b919050565b600067ffffffffffffffff821115611c2157611c20611b8b565b5b611c2a826118d4565b9050602081019050919050565b82818337600083830152505050565b6000611c59611c5484611c06565b611beb565b905082815260208101848484011115611c7557611c74611b86565b5b611c80848285611c37565b509392505050565b600082601f830112611c9d57611c9c611b81565b5b8135611cad848260208601611c46565b91505092915050565b60008060008060808587031215611cd057611ccf6117c9565b5b6000611cde87828801611a16565b9450506020611cef87828801611a16565b9350506040611d0087828801611961565b925050606085013567ffffffffffffffff811115611d2157611d206117ce565b5b611d2d87828801611c88565b91505092959194509250565b60008060408385031215611d5057611d4f6117c9565b5b6000611d5e85828601611a16565b9250506020611d6f85828601611a16565b9150509250929050565b7f4e487b7100000000000000000000000000000000000000000000000000000000600052602260045260246000fd5b60006002820490506001821680611dc057607f821691505b602082108103611dd357611dd2611d79565b5b50919050565b7f4552433732313a20617070726f76616c20746f2063757272656e74206f776e6560008201527f7200000000000000000000000000000000000000000000000000000000000000602082015250565b6000611e35602183611899565b9150611e4082611dd9565b604082019050919050565b60006020820190508181036000830152611e6481611e28565b9050919050565b7f4552433732313a20617070726f76652063616c6c6572206973206e6f7420746f60008201527f6b656e206f776e6572206f7220617070726f76656420666f7220616c6c000000602082015250565b6000611ec7603d83611899565b9150611ed282611e6b565b604082019050919050565b60006020820190508181036000830152611ef681611eba565b9050919050565b7f4552433732313a2063616c6c6572206973206e6f7420746f6b656e206f776e6560008201527f72206f7220617070726f76656400000000000000000000000000000000000000602082015250565b6000611f59602d83611899565b9150611f6482611efd565b604082019050919050565b60006020820190508181036000830152611f8881611f4c565b9050919050565b7f4552433732313a20696e76616c696420746f6b656e2049440000000000000000600082015250565b6000611fc5601883611899565b9150611fd082611f8f565b602082019050919050565b60006020820190508181036000830152611ff481611fb8565b9050919050565b7f7573657220616c726561647920686173206f6e65204e46540000000000000000600082015250565b6000612031601883611899565b915061203c82611ffb565b602082019050919050565b6000602082019050818103600083015261206081612024565b9050919050565b7f4552433732313a2061646472657373207a65726f206973206e6f74206120766160008201527f6c6964206f776e65720000000000000000000000000000000000000000000000602082015250565b60006120c3602983611899565b91506120ce82612067565b604082019050919050565b600060208201905081810360008301526120f2816120b6565b9050919050565b600081905092915050565b600061210f8261188e565b61211981856120f9565b93506121298185602086016118aa565b80840191505092915050565b7f2f00000000000000000000000000000000000000000000000000000000000000600082015250565b600061216b6001836120f9565b915061217682612135565b600182019050919050565b7f2e6a736f6e000000000000000000000000000000000000000000000000000000600082015250565b60006121b76005836120f9565b91506121c282612181565b600582019050919050565b60006121d98285612104565b91506121e48261215e565b91506121f08284612104565b91506121fb826121aa565b91508190509392505050565b7f4552433732313a207472616e736665722066726f6d20696e636f72726563742060008201527f6f776e6572000000000000000000000000000000000000000000000000000000602082015250565b6000612263602583611899565b915061226e82612207565b604082019050919050565b6000602082019050818103600083015261229281612256565b9050919050565b7f4552433732313a207472616e7366657220746f20746865207a65726f2061646460008201527f7265737300000000000000000000000000000000000000000000000000000000602082015250565b60006122f5602483611899565b915061230082612299565b604082019050919050565b60006020820190508181036000830152612324816122e8565b9050919050565b7f4552433732313a20617070726f766520746f2063616c6c657200000000000000600082015250565b6000612361601983611899565b915061236c8261232b565b602082019050919050565b6000602082019050818103600083015261239081612354565b9050919050565b7f4552433732313a207472616e7366657220746f206e6f6e20455243373231526560008201527f63656976657220696d706c656d656e7465720000000000000000000000000000602082015250565b60006123f3603283611899565b91506123fe82612397565b604082019050919050565b60006020820190508181036000830152612422816123e6565b9050919050565b7f4e487b7100000000000000000000000000000000000000000000000000000000600052601260045260246000fd5b600081519050919050565b600082825260208201905092915050565b600061247f82612458565b6124898185612463565b93506124998185602086016118aa565b6124a2816118d4565b840191505092915050565b60006080820190506124c260008301876119d5565b6124cf60208301866119d5565b6124dc6040830185611aeb565b81810360608301526124ee8184612474565b905095945050505050565b600081519050612508816117ff565b92915050565b600060208284031215612524576125236117c9565b5b6000612532848285016124f9565b91505092915050565b7f4552433732313a206d696e7420746f20746865207a65726f2061646472657373600082015250565b6000612571602083611899565b915061257c8261253b565b602082019050919050565b600060208201905081810360008301526125a081612564565b9050919050565b7f4552433732313a20746f6b656e20616c7265616479206d696e74656400000000600082015250565b60006125dd601c83611899565b91506125e8826125a7565b602082019050919050565b6000602082019050818103600083015261260c816125d0565b905091905056fe68747470733a2f2f62616679626569616b74796b6a716266616779793671737870353472637461646f77736561616463797267617169376173766d7779656977676d752e697066732e6e667473746f726167652e6c696e6ba26469706673582212201eb42706af5e952af0cb37f9783ba961cd5aa0d48206062b24a4a5ab25ef8bfe64736f6c63430008110033",
  "linkReferences": {},
  "deployedLinkReferences": {}
}