{
  "_format": "hh-sol-artifact-1",
  "contractName": "myNFT",
  "sourceName": "contracts/myNFT.sol",
  "abi": [
    {
      "inputs": [
        {
          "internalType": "string",
          "name": "baseTokenURI",
          "type": "string"
        }
      ],
      "stateMutability": "nonpayable",
      "type": "constructor"
    },
    {
      "anonymous": false,
      "inputs": [
        {
          "indexed": true,
          "internalType": "address",
          "name": "owner",
          "type": "address"
        },
        {
          "indexed": true,
          "internalType": "address",
          "name": "approved",
          "type": "address"
        },
        {
          "indexed": true,
          "internalType": "uint256",
          "name": "tokenId",
          "type": "uint256"
        }
      ],
      "name": "Approval",
      "type": "event"
    },
    {
      "anonymous": false,
      "inputs": [
        {
          "indexed": true,
          "internalType": "address",
          "name": "owner",
          "type": "address"
        },
        {
          "indexed": true,
          "internalType": "address",
          "name": "operator",
          "type": "address"
        },
        {
          "indexed": false,
          "internalType": "bool",
          "name": "approved",
          "type": "bool"
        }
      ],
      "name": "ApprovalForAll",
      "type": "event"
    },
    {
      "anonymous": false,
      "inputs": [
        {
          "indexed": true,
          "internalType": "address",
          "name": "from",
          "type": "address"
        },
        {
          "indexed": true,
          "internalType": "address",
          "name": "to",
          "type": "address"
        },
        {
          "indexed": true,
          "internalType": "uint256",
          "name": "tokenId",
          "type": "uint256"
        }
      ],
      "name": "Transfer",
      "type": "event"
    },
    {
      "inputs": [
        {
          "internalType": "address",
          "name": "to",
          "type": "address"
        },
        {
          "internalType": "uint256",
          "name": "tokenId",
          "type": "uint256"
        }
      ],
      "name": "approve",
      "outputs": [],
      "stateMutability": "nonpayable",
      "type": "function"
    },
    {
      "inputs": [
        {
          "internalType": "address",
          "name": "owner",
          "type": "address"
        }
      ],
      "name": "balanceOf",
      "outputs": [
        {
          "internalType": "uint256",
          "name": "",
          "type": "uint256"
        }
      ],
      "stateMutability": "view",
      "type": "function"
    },
    {
      "inputs": [
        {
          "internalType": "uint256",
          "name": "tokenId",
          "type": "uint256"
        }
      ],
      "name": "getApproved",
      "outputs": [
        {
          "internalType": "address",
          "name": "",
          "type": "address"
        }
      ],
      "stateMutability": "view",
      "type": "function"
    },
    {
      "inputs": [
        {
          "internalType": "address",
          "name": "owner",
          "type": "address"
        },
        {
          "internalType": "address",
          "name": "operator",
          "type": "address"
        }
      ],
      "name": "isApprovedForAll",
      "outputs": [
        {
          "internalType": "bool",
          "name": "",
          "type": "bool"
        }
      ],
      "stateMutability": "view",
      "type": "function"
    },
    {
      "inputs": [],
      "name": "name",
      "outputs": [
        {
          "internalType": "string",
          "name": "",
          "type": "string"
        }
      ],
      "stateMutability": "view",
      "type": "function"
    },
    {
      "inputs": [
        {
          "internalType": "uint256",
          "name": "tokenId",
          "type": "uint256"
        }
      ],
      "name": "ownerOf",
      "outputs": [
        {
          "internalType": "address",
          "name": "",
          "type": "address"
        }
      ],
      "stateMutability": "view",
      "type": "function"
    },
    {
      "inputs": [],
      "name": "safeMint",
      "outputs": [],
      "stateMutability": "nonpayable",
      "type": "function"
    },
    {
      "inputs": [
        {
          "internalType": "address",
          "name": "from",
          "type": "address"
        },
        {
          "internalType": "address",
          "name": "to",
          "type": "address"
        },
        {
          "internalType": "uint256",
          "name": "tokenId",
          "type": "uint256"
        }
      ],
      "name": "safeTransferFrom",
      "outputs": [],
      "stateMutability": "nonpayable",
      "type": "function"
    },
    {
      "inputs": [
        {
          "internalType": "address",
          "name": "from",
          "type": "address"
        },
        {
          "internalType": "address",
          "name": "to",
          "type": "address"
        },
        {
          "internalType": "uint256",
          "name": "tokenId",
          "type": "uint256"
        },
        {
          "internalType": "bytes",
          "name": "data",
          "type": "bytes"
        }
      ],
      "name": "safeTransferFrom",
      "outputs": [],
      "stateMutability": "nonpayable",
      "type": "function"
    },
    {
      "inputs": [
        {
          "internalType": "address",
          "name": "operator",
          "type": "address"
        },
        {
          "internalType": "bool",
          "name": "approved",
          "type": "bool"
        }
      ],
      "name": "setApprovalForAll",
      "outputs": [],
      "stateMutability": "nonpayable",
      "type": "function"
    },
    {
      "inputs": [
        {
          "internalType": "bytes4",
          "name": "interfaceId",
          "type": "bytes4"
        }
      ],
      "name": "supportsInterface",
      "outputs": [
        {
          "internalType": "bool",
          "name": "",
          "type": "bool"
        }
      ],
      "stateMutability": "view",
      "type": "function"
    },
    {
      "inputs": [],
      "name": "symbol",
      "outputs": [
        {
          "internalType": "string",
          "name": "",
          "type": "string"
        }
      ],
      "stateMutability": "view",
      "type": "function"
    },
    {
      "inputs": [
        {
          "internalType": "uint256",
          "name": "tokenId",
          "type": "uint256"
        }
      ],
      "name": "tokenURI",
      "outputs": [
        {
          "internalType": "string",
          "name": "",
          "type": "string"
        }
      ],
      "stateMutability": "view",
      "type": "function"
    },
    {
      "inputs": [
        {
          "internalType": "address",
          "name": "from",
          "type": "address"
        },
        {
          "internalType": "address",
          "name": "to",
          "type": "address"
        },
        {
          "internalType": "uint256",
          "name": "tokenId",
          "type": "uint256"
        }
      ],
      "name": "transferFrom",
      "outputs": [],
      "stateMutability": "nonpayable",
      "type": "function"
    }
  ],
  "bytecode": "0x60806040523480156200001157600080fd5b5060405162002a9038038062002a90833981810160405281019062000037919062000275565b6040518060400160405280600981526020017f7369642773204e465400000000000000000000000000000000000000000000008152506040518060400160405280600381526020017f58494400000000000000000000000000000000000000000000000000000000008152508160009081620000b4919062000511565b508060019081620000c6919062000511565b5050508060079081620000da919062000511565b5050620005f8565b6000604051905090565b600080fd5b600080fd5b600080fd5b600080fd5b6000601f19601f8301169050919050565b7f4e487b7100000000000000000000000000000000000000000000000000000000600052604160045260246000fd5b6200014b8262000100565b810181811067ffffffffffffffff821117156200016d576200016c62000111565b5b80604052505050565b600062000182620000e2565b905062000190828262000140565b919050565b600067ffffffffffffffff821115620001b357620001b262000111565b5b620001be8262000100565b9050602081019050919050565b60005b83811015620001eb578082015181840152602081019050620001ce565b60008484015250505050565b60006200020e620002088462000195565b62000176565b9050828152602081018484840111156200022d576200022c620000fb565b5b6200023a848285620001cb565b509392505050565b600082601f8301126200025a5762000259620000f6565b5b81516200026c848260208601620001f7565b91505092915050565b6000602082840312156200028e576200028d620000ec565b5b600082015167ffffffffffffffff811115620002af57620002ae620000f1565b5b620002bd8482850162000242565b91505092915050565b600081519050919050565b7f4e487b7100000000000000000000000000000000000000000000000000000000600052602260045260246000fd5b600060028204905060018216806200031957607f821691505b6020821081036200032f576200032e620002d1565b5b50919050565b60008190508160005260206000209050919050565b60006020601f8301049050919050565b600082821b905092915050565b600060088302620003997fffffffffffffffffffffffffffffffffffffffffffffffffffffffffffffffff826200035a565b620003a586836200035a565b95508019841693508086168417925050509392505050565b6000819050919050565b6000819050919050565b6000620003f2620003ec620003e684620003bd565b620003c7565b620003bd565b9050919050565b6000819050919050565b6200040e83620003d1565b620004266200041d82620003f9565b84845462000367565b825550505050565b600090565b6200043d6200042e565b6200044a81848462000403565b505050565b5b8181101562000472576200046660008262000433565b60018101905062000450565b5050565b601f821115620004c1576200048b8162000335565b62000496846200034a565b81016020851015620004a6578190505b620004be620004b5856200034a565b8301826200044f565b50505b505050565b600082821c905092915050565b6000620004e660001984600802620004c6565b1980831691505092915050565b6000620005018383620004d3565b9150826002028217905092915050565b6200051c82620002c6565b67ffffffffffffffff81111562000538576200053762000111565b5b62000544825462000300565b6200055182828562000476565b600060209050601f83116001811462000589576000841562000574578287015190505b620005808582620004f3565b865550620005f0565b601f198416620005998662000335565b60005b82811015620005c3578489015182556001820191506020850194506020810190506200059c565b86831015620005e35784890151620005df601f891682620004d3565b8355505b6001600288020188555050505b505050505050565b61248880620006086000396000f3fe608060405234801561001057600080fd5b50600436106100ea5760003560e01c80636871ee401161008c578063a22cb46511610066578063a22cb46514610249578063b88d4fde14610265578063c87b56dd14610281578063e985e9c5146102b1576100ea565b80636871ee40146101f157806370a08231146101fb57806395d89b411461022b576100ea565b8063095ea7b3116100c8578063095ea7b31461016d57806323b872dd1461018957806342842e0e146101a55780636352211e146101c1576100ea565b806301ffc9a7146100ef57806306fdde031461011f578063081812fc1461013d575b600080fd5b61010960048036038101906101049190611674565b6102e1565b60405161011691906116bc565b60405180910390f35b6101276103c3565b6040516101349190611767565b60405180910390f35b610157600480360381019061015291906117bf565b610455565b604051610164919061182d565b60405180910390f35b61018760048036038101906101829190611874565b61049b565b005b6101a3600480360381019061019e91906118b4565b6105b2565b005b6101bf60048036038101906101ba91906118b4565b610612565b005b6101db60048036038101906101d691906117bf565b610632565b6040516101e8919061182d565b60405180910390f35b6101f96106b8565b005b61021560048036038101906102109190611907565b61072f565b6040516102229190611943565b60405180910390f35b6102336107e6565b6040516102409190611767565b60405180910390f35b610263600480360381019061025e919061198a565b610878565b005b61027f600480360381019061027a9190611aff565b61088e565b005b61029b600480360381019061029691906117bf565b6108f0565b6040516102a89190611767565b60405180910390f35b6102cb60048036038101906102c69190611b82565b610928565b6040516102d891906116bc565b60405180910390f35b60007f80ac58cd000000000000000000000000000000000000000000000000000000007bffffffffffffffffffffffffffffffffffffffffffffffffffffffff1916827bffffffffffffffffffffffffffffffffffffffffffffffffffffffff191614806103ac57507f5b5e139f000000000000000000000000000000000000000000000000000000007bffffffffffffffffffffffffffffffffffffffffffffffffffffffff1916827bffffffffffffffffffffffffffffffffffffffffffffffffffffffff1916145b806103bc57506103bb826109bc565b5b9050919050565b6060600080546103d290611bf1565b80601f01602080910402602001604051908101604052809291908181526020018280546103fe90611bf1565b801561044b5780601f106104205761010080835404028352916020019161044b565b820191906000526020600020905b81548152906001019060200180831161042e57829003601f168201915b5050505050905090565b600061046082610a26565b6004600083815260200190815260200160002060009054906101000a900473ffffffffffffffffffffffffffffffffffffffff169050919050565b60006104a682610632565b90508073ffffffffffffffffffffffffffffffffffffffff168373ffffffffffffffffffffffffffffffffffffffff1603610516576040517f08c379a000000000000000000000000000000000000000000000000000000000815260040161050d90611c94565b60405180910390fd5b8073ffffffffffffffffffffffffffffffffffffffff16610535610a71565b73ffffffffffffffffffffffffffffffffffffffff16148061056457506105638161055e610a71565b610928565b5b6105a3576040517f08c379a000000000000000000000000000000000000000000000000000000000815260040161059a90611d26565b60405180910390fd5b6105ad8383610a79565b505050565b6105c36105bd610a71565b82610b32565b610602576040517f08c379a00000000000000000000000000000000000000000000000000000000081526004016105f990611db8565b60405180910390fd5b61060d838383610bc7565b505050565b61062d8383836040518060200160405280600081525061088e565b505050565b60008061063e83610ec0565b9050600073ffffffffffffffffffffffffffffffffffffffff168173ffffffffffffffffffffffffffffffffffffffff16036106af576040517f08c379a00000000000000000000000000000000000000000000000000000000081526004016106a690611e24565b60405180910390fd5b80915050919050565b6106ca6106c56006610efd565b610f0b565b1561070a576040517f08c379a000000000000000000000000000000000000000000000000000000000815260040161070190611e90565b60405180910390fd5b60006107166006610efd565b90506107223382610f4c565b61072c6006610f6a565b50565b60008073ffffffffffffffffffffffffffffffffffffffff168273ffffffffffffffffffffffffffffffffffffffff160361079f576040517f08c379a000000000000000000000000000000000000000000000000000000000815260040161079690611f22565b60405180910390fd5b600360008373ffffffffffffffffffffffffffffffffffffffff1673ffffffffffffffffffffffffffffffffffffffff168152602001908152602001600020549050919050565b6060600180546107f590611bf1565b80601f016020809104026020016040519081016040528092919081815260200182805461082190611bf1565b801561086e5780601f106108435761010080835404028352916020019161086e565b820191906000526020600020905b81548152906001019060200180831161085157829003601f168201915b5050505050905090565b61088a610883610a71565b8383610f80565b5050565b61089f610899610a71565b83610b32565b6108de576040517f08c379a00000000000000000000000000000000000000000000000000000000081526004016108d590611db8565b60405180910390fd5b6108ea848484846110ec565b50505050565b606060006108fc611148565b8360405160200161090e929190612037565b604051602081830303815290604052905080915050919050565b6000600560008473ffffffffffffffffffffffffffffffffffffffff1673ffffffffffffffffffffffffffffffffffffffff16815260200190815260200160002060008373ffffffffffffffffffffffffffffffffffffffff1673ffffffffffffffffffffffffffffffffffffffff16815260200190815260200160002060009054906101000a900460ff16905092915050565b60007f01ffc9a7000000000000000000000000000000000000000000000000000000007bffffffffffffffffffffffffffffffffffffffffffffffffffffffff1916827bffffffffffffffffffffffffffffffffffffffffffffffffffffffff1916149050919050565b610a2f81610f0b565b610a6e576040517f08c379a0000000000000000000000000000000000000000000000000000000008152600401610a6590611e24565b60405180910390fd5b50565b600033905090565b816004600083815260200190815260200160002060006101000a81548173ffffffffffffffffffffffffffffffffffffffff021916908373ffffffffffffffffffffffffffffffffffffffff160217905550808273ffffffffffffffffffffffffffffffffffffffff16610aec83610632565b73ffffffffffffffffffffffffffffffffffffffff167f8c5be1e5ebec7d5bd14f71427d1e84f3dd0314c0f7b2291e5b200ac8c7c3b92560405160405180910390a45050565b600080610b3e83610632565b90508073ffffffffffffffffffffffffffffffffffffffff168473ffffffffffffffffffffffffffffffffffffffff161480610b805750610b7f8185610928565b5b80610bbe57508373ffffffffffffffffffffffffffffffffffffffff16610ba684610455565b73ffffffffffffffffffffffffffffffffffffffff16145b91505092915050565b8273ffffffffffffffffffffffffffffffffffffffff16610be782610632565b73ffffffffffffffffffffffffffffffffffffffff1614610c3d576040517f08c379a0000000000000000000000000000000000000000000000000000000008152600401610c34906120e7565b60405180910390fd5b600073ffffffffffffffffffffffffffffffffffffffff168273ffffffffffffffffffffffffffffffffffffffff1603610cac576040517f08c379a0000000000000000000000000000000000000000000000000000000008152600401610ca390612179565b60405180910390fd5b610cb983838360016111da565b8273ffffffffffffffffffffffffffffffffffffffff16610cd982610632565b73ffffffffffffffffffffffffffffffffffffffff1614610d2f576040517f08c379a0000000000000000000000000000000000000000000000000000000008152600401610d26906120e7565b60405180910390fd5b6004600082815260200190815260200160002060006101000a81549073ffffffffffffffffffffffffffffffffffffffff02191690556001600360008573ffffffffffffffffffffffffffffffffffffffff1673ffffffffffffffffffffffffffffffffffffffff168152602001908152602001600020600082825403925050819055506001600360008473ffffffffffffffffffffffffffffffffffffffff1673ffffffffffffffffffffffffffffffffffffffff16815260200190815260200160002060008282540192505081905550816002600083815260200190815260200160002060006101000a81548173ffffffffffffffffffffffffffffffffffffffff021916908373ffffffffffffffffffffffffffffffffffffffff160217905550808273ffffffffffffffffffffffffffffffffffffffff168473ffffffffffffffffffffffffffffffffffffffff167fddf252ad1be2c89b69c2b068fc378daa952ba7f163c4a11628f55a4df523b3ef60405160405180910390a4610ebb83838360016111e0565b505050565b60006002600083815260200190815260200160002060009054906101000a900473ffffffffffffffffffffffffffffffffffffffff169050919050565b600081600001549050919050565b60008073ffffffffffffffffffffffffffffffffffffffff16610f2d83610ec0565b73ffffffffffffffffffffffffffffffffffffffff1614159050919050565b610f668282604051806020016040528060008152506111e6565b5050565b6001816000016000828254019250508190555050565b8173ffffffffffffffffffffffffffffffffffffffff168373ffffffffffffffffffffffffffffffffffffffff1603610fee576040517f08c379a0000000000000000000000000000000000000000000000000000000008152600401610fe5906121e5565b60405180910390fd5b80600560008573ffffffffffffffffffffffffffffffffffffffff1673ffffffffffffffffffffffffffffffffffffffff16815260200190815260200160002060008473ffffffffffffffffffffffffffffffffffffffff1673ffffffffffffffffffffffffffffffffffffffff16815260200190815260200160002060006101000a81548160ff0219169083151502179055508173ffffffffffffffffffffffffffffffffffffffff168373ffffffffffffffffffffffffffffffffffffffff167f17307eab39ab6107e8899845ad3d59bd9653f200f220920489ca2b5937696c31836040516110df91906116bc565b60405180910390a3505050565b6110f7848484610bc7565b61110384848484611241565b611142576040517f08c379a000000000000000000000000000000000000000000000000000000000815260040161113990612277565b60405180910390fd5b50505050565b60606007805461115790611bf1565b80601f016020809104026020016040519081016040528092919081815260200182805461118390611bf1565b80156111d05780601f106111a5576101008083540402835291602001916111d0565b820191906000526020600020905b8154815290600101906020018083116111b357829003601f168201915b5050505050905090565b50505050565b50505050565b6111f083836113c8565b6111fd6000848484611241565b61123c576040517f08c379a000000000000000000000000000000000000000000000000000000000815260040161123390612277565b60405180910390fd5b505050565b60006112628473ffffffffffffffffffffffffffffffffffffffff166115e5565b156113bb578373ffffffffffffffffffffffffffffffffffffffff1663150b7a0261128b610a71565b8786866040518563ffffffff1660e01b81526004016112ad94939291906122ec565b6020604051808303816000875af19250505080156112e957506040513d601f19601f820116820180604052508101906112e6919061234d565b60015b61136b573d8060008114611319576040519150601f19603f3d011682016040523d82523d6000602084013e61131e565b606091505b506000815103611363576040517f08c379a000000000000000000000000000000000000000000000000000000000815260040161135a90612277565b60405180910390fd5b805181602001fd5b63150b7a0260e01b7bffffffffffffffffffffffffffffffffffffffffffffffffffffffff1916817bffffffffffffffffffffffffffffffffffffffffffffffffffffffff1916149150506113c0565b600190505b949350505050565b600073ffffffffffffffffffffffffffffffffffffffff168273ffffffffffffffffffffffffffffffffffffffff1603611437576040517f08c379a000000000000000000000000000000000000000000000000000000000815260040161142e906123c6565b60405180910390fd5b61144081610f0b565b15611480576040517f08c379a000000000000000000000000000000000000000000000000000000000815260040161147790612432565b60405180910390fd5b61148e6000838360016111da565b61149781610f0b565b156114d7576040517f08c379a00000000000000000000000000000000000000000000000000000000081526004016114ce90612432565b60405180910390fd5b6001600360008473ffffffffffffffffffffffffffffffffffffffff1673ffffffffffffffffffffffffffffffffffffffff16815260200190815260200160002060008282540192505081905550816002600083815260200190815260200160002060006101000a81548173ffffffffffffffffffffffffffffffffffffffff021916908373ffffffffffffffffffffffffffffffffffffffff160217905550808273ffffffffffffffffffffffffffffffffffffffff16600073ffffffffffffffffffffffffffffffffffffffff167fddf252ad1be2c89b69c2b068fc378daa952ba7f163c4a11628f55a4df523b3ef60405160405180910390a46115e16000838360016111e0565b5050565b6000808273ffffffffffffffffffffffffffffffffffffffff163b119050919050565b6000604051905090565b600080fd5b600080fd5b60007fffffffff0000000000000000000000000000000000000000000000000000000082169050919050565b6116518161161c565b811461165c57600080fd5b50565b60008135905061166e81611648565b92915050565b60006020828403121561168a57611689611612565b5b60006116988482850161165f565b91505092915050565b60008115159050919050565b6116b6816116a1565b82525050565b60006020820190506116d160008301846116ad565b92915050565b600081519050919050565b600082825260208201905092915050565b60005b838110156117115780820151818401526020810190506116f6565b60008484015250505050565b6000601f19601f8301169050919050565b6000611739826116d7565b61174381856116e2565b93506117538185602086016116f3565b61175c8161171d565b840191505092915050565b60006020820190508181036000830152611781818461172e565b905092915050565b6000819050919050565b61179c81611789565b81146117a757600080fd5b50565b6000813590506117b981611793565b92915050565b6000602082840312156117d5576117d4611612565b5b60006117e3848285016117aa565b91505092915050565b600073ffffffffffffffffffffffffffffffffffffffff82169050919050565b6000611817826117ec565b9050919050565b6118278161180c565b82525050565b6000602082019050611842600083018461181e565b92915050565b6118518161180c565b811461185c57600080fd5b50565b60008135905061186e81611848565b92915050565b6000806040838503121561188b5761188a611612565b5b60006118998582860161185f565b92505060206118aa858286016117aa565b9150509250929050565b6000806000606084860312156118cd576118cc611612565b5b60006118db8682870161185f565b93505060206118ec8682870161185f565b92505060406118fd868287016117aa565b9150509250925092565b60006020828403121561191d5761191c611612565b5b600061192b8482850161185f565b91505092915050565b61193d81611789565b82525050565b60006020820190506119586000830184611934565b92915050565b611967816116a1565b811461197257600080fd5b50565b6000813590506119848161195e565b92915050565b600080604083850312156119a1576119a0611612565b5b60006119af8582860161185f565b92505060206119c085828601611975565b9150509250929050565b600080fd5b600080fd5b7f4e487b7100000000000000000000000000000000000000000000000000000000600052604160045260246000fd5b611a0c8261171d565b810181811067ffffffffffffffff82111715611a2b57611a2a6119d4565b5b80604052505050565b6000611a3e611608565b9050611a4a8282611a03565b919050565b600067ffffffffffffffff821115611a6a57611a696119d4565b5b611a738261171d565b9050602081019050919050565b82818337600083830152505050565b6000611aa2611a9d84611a4f565b611a34565b905082815260208101848484011115611abe57611abd6119cf565b5b611ac9848285611a80565b509392505050565b600082601f830112611ae657611ae56119ca565b5b8135611af6848260208601611a8f565b91505092915050565b60008060008060808587031215611b1957611b18611612565b5b6000611b278782880161185f565b9450506020611b388782880161185f565b9350506040611b49878288016117aa565b925050606085013567ffffffffffffffff811115611b6a57611b69611617565b5b611b7687828801611ad1565b91505092959194509250565b60008060408385031215611b9957611b98611612565b5b6000611ba78582860161185f565b9250506020611bb88582860161185f565b9150509250929050565b7f4e487b7100000000000000000000000000000000000000000000000000000000600052602260045260246000fd5b60006002820490506001821680611c0957607f821691505b602082108103611c1c57611c1b611bc2565b5b50919050565b7f4552433732313a20617070726f76616c20746f2063757272656e74206f776e6560008201527f7200000000000000000000000000000000000000000000000000000000000000602082015250565b6000611c7e6021836116e2565b9150611c8982611c22565b604082019050919050565b60006020820190508181036000830152611cad81611c71565b9050919050565b7f4552433732313a20617070726f76652063616c6c6572206973206e6f7420746f60008201527f6b656e206f776e6572206f7220617070726f76656420666f7220616c6c000000602082015250565b6000611d10603d836116e2565b9150611d1b82611cb4565b604082019050919050565b60006020820190508181036000830152611d3f81611d03565b9050919050565b7f4552433732313a2063616c6c6572206973206e6f7420746f6b656e206f776e6560008201527f72206f7220617070726f76656400000000000000000000000000000000000000602082015250565b6000611da2602d836116e2565b9150611dad82611d46565b604082019050919050565b60006020820190508181036000830152611dd181611d95565b9050919050565b7f4552433732313a20696e76616c696420746f6b656e2049440000000000000000600082015250565b6000611e0e6018836116e2565b9150611e1982611dd8565b602082019050919050565b60006020820190508181036000830152611e3d81611e01565b9050919050565b7f7573657220616c726561647920686173206f6e65204e46540000000000000000600082015250565b6000611e7a6018836116e2565b9150611e8582611e44565b602082019050919050565b60006020820190508181036000830152611ea981611e6d565b9050919050565b7f4552433732313a2061646472657373207a65726f206973206e6f74206120766160008201527f6c6964206f776e65720000000000000000000000000000000000000000000000602082015250565b6000611f0c6029836116e2565b9150611f1782611eb0565b604082019050919050565b60006020820190508181036000830152611f3b81611eff565b9050919050565b600081905092915050565b6000611f58826116d7565b611f628185611f42565b9350611f728185602086016116f3565b80840191505092915050565b7f2f00000000000000000000000000000000000000000000000000000000000000600082015250565b6000611fb4600183611f42565b9150611fbf82611f7e565b600182019050919050565b6000819050919050565b611fe5611fe082611789565b611fca565b82525050565b7f2e6a736f6e000000000000000000000000000000000000000000000000000000600082015250565b6000612021600583611f42565b915061202c82611feb565b600582019050919050565b60006120438285611f4d565b915061204e82611fa7565b915061205a8284611fd4565b60208201915061206982612014565b91508190509392505050565b7f4552433732313a207472616e736665722066726f6d20696e636f72726563742060008201527f6f776e6572000000000000000000000000000000000000000000000000000000602082015250565b60006120d16025836116e2565b91506120dc82612075565b604082019050919050565b60006020820190508181036000830152612100816120c4565b9050919050565b7f4552433732313a207472616e7366657220746f20746865207a65726f2061646460008201527f7265737300000000000000000000000000000000000000000000000000000000602082015250565b60006121636024836116e2565b915061216e82612107565b604082019050919050565b6000602082019050818103600083015261219281612156565b9050919050565b7f4552433732313a20617070726f766520746f2063616c6c657200000000000000600082015250565b60006121cf6019836116e2565b91506121da82612199565b602082019050919050565b600060208201905081810360008301526121fe816121c2565b9050919050565b7f4552433732313a207472616e7366657220746f206e6f6e20455243373231526560008201527f63656976657220696d706c656d656e7465720000000000000000000000000000602082015250565b60006122616032836116e2565b915061226c82612205565b604082019050919050565b6000602082019050818103600083015261229081612254565b9050919050565b600081519050919050565b600082825260208201905092915050565b60006122be82612297565b6122c881856122a2565b93506122d88185602086016116f3565b6122e18161171d565b840191505092915050565b6000608082019050612301600083018761181e565b61230e602083018661181e565b61231b6040830185611934565b818103606083015261232d81846122b3565b905095945050505050565b60008151905061234781611648565b92915050565b60006020828403121561236357612362611612565b5b600061237184828501612338565b91505092915050565b7f4552433732313a206d696e7420746f20746865207a65726f2061646472657373600082015250565b60006123b06020836116e2565b91506123bb8261237a565b602082019050919050565b600060208201905081810360008301526123df816123a3565b9050919050565b7f4552433732313a20746f6b656e20616c7265616479206d696e74656400000000600082015250565b600061241c601c836116e2565b9150612427826123e6565b602082019050919050565b6000602082019050818103600083015261244b8161240f565b905091905056fea2646970667358221220ea66519df2da6d7dd4d720bae675fbc5d3a8084d7e7d73e8e309278d186c06c164736f6c63430008110033",
  "linkReferences": {},
  "deployedLinkReferences": {}
}